{
  "contractName": "TokenERC20",
  "abi": [
    {
      "constant": true,
      "inputs": [],
      "name": "name",
      "outputs": [
        {
          "name": "",
          "type": "string"
        }
      ],
      "payable": false,
      "stateMutability": "view",
      "type": "function"
    },
    {
      "constant": true,
      "inputs": [],
      "name": "totalSupply",
      "outputs": [
        {
          "name": "",
          "type": "uint256"
        }
      ],
      "payable": false,
      "stateMutability": "view",
      "type": "function"
    },
    {
      "constant": true,
      "inputs": [],
      "name": "decimals",
      "outputs": [
        {
          "name": "",
          "type": "uint8"
        }
      ],
      "payable": false,
      "stateMutability": "view",
      "type": "function"
    },
    {
      "constant": true,
      "inputs": [],
      "name": "getMyBalance",
      "outputs": [
        {
          "name": "",
          "type": "uint256"
        }
      ],
      "payable": false,
      "stateMutability": "view",
      "type": "function"
    },
    {
      "constant": true,
      "inputs": [
        {
          "name": "",
          "type": "address"
        }
      ],
      "name": "balanceOf",
      "outputs": [
        {
          "name": "",
          "type": "uint256"
        }
      ],
      "payable": false,
      "stateMutability": "view",
      "type": "function"
    },
    {
      "constant": true,
      "inputs": [],
      "name": "symbol",
      "outputs": [
        {
          "name": "",
          "type": "string"
        }
      ],
      "payable": false,
      "stateMutability": "view",
      "type": "function"
    },
    {
      "constant": true,
      "inputs": [
        {
          "name": "",
          "type": "address"
        }
      ],
      "name": "users",
      "outputs": [
        {
          "name": "registered",
          "type": "bool"
        }
      ],
      "payable": false,
      "stateMutability": "view",
      "type": "function"
    },
    {
      "constant": false,
      "inputs": [
        {
          "name": "_to",
          "type": "address"
        },
        {
          "name": "_value",
          "type": "uint256"
        }
      ],
      "name": "transfer",
      "outputs": [],
      "payable": false,
      "stateMutability": "nonpayable",
      "type": "function"
    },
    {
      "constant": false,
      "inputs": [],
      "name": "signup",
      "outputs": [],
      "payable": false,
      "stateMutability": "nonpayable",
      "type": "function"
    },
    {
      "inputs": [
        {
          "name": "initialSupply",
          "type": "uint256"
        },
        {
          "name": "tokenName",
          "type": "string"
        },
        {
          "name": "tokenSymbol",
          "type": "string"
        }
      ],
      "payable": false,
      "stateMutability": "nonpayable",
      "type": "constructor"
    },
    {
      "anonymous": false,
      "inputs": [
        {
          "indexed": true,
          "name": "from",
          "type": "address"
        },
        {
          "indexed": true,
          "name": "to",
          "type": "address"
        },
        {
          "indexed": false,
          "name": "value",
          "type": "uint256"
        }
      ],
      "name": "Transfer",
      "type": "event"
    }
  ],
  "bytecode": "0x60606040526012600260006101000a81548160ff021916908360ff160217905550341561002b57600080fd5b604051610b9f380380610b9f83398101604052808051906020019091908051820191906020018051820191905050600260009054906101000a900460ff1660ff16600a0a8302600381905550816000908051906020019061008d9291906100ad565b5080600190805190602001906100a49291906100ad565b50505050610152565b828054600181600116156101000203166002900490600052602060002090601f016020900481019282601f106100ee57805160ff191683800117855561011c565b8280016001018555821561011c579182015b8281111561011b578251825591602001919060010190610100565b5b509050610129919061012d565b5090565b61014f91905b8082111561014b576000816000905550600101610133565b5090565b90565b610a3e806101616000396000f300606060405260043610610099576000357c0100000000000000000000000000000000000000000000000000000000900463ffffffff16806306fdde031461009e57806318160ddd1461012c578063313ce567146101555780634c7389091461018457806370a08231146101ad57806395d89b41146101fa578063a87430ba14610288578063a9059cbb146102d9578063b7bc0f731461031b575b600080fd5b34156100a957600080fd5b6100b1610330565b6040518080602001828103825283818151815260200191508051906020019080838360005b838110156100f15780820151818401526020810190506100d6565b50505050905090810190601f16801561011e5780820380516001836020036101000a031916815260200191505b509250505060405180910390f35b341561013757600080fd5b61013f6103ce565b6040518082815260200191505060405180910390f35b341561016057600080fd5b6101686103d4565b604051808260ff1660ff16815260200191505060405180910390f35b341561018f57600080fd5b6101976103e7565b6040518082815260200191505060405180910390f35b34156101b857600080fd5b6101e4600480803573ffffffffffffffffffffffffffffffffffffffff16906020019091905050610490565b6040518082815260200191505060405180910390f35b341561020557600080fd5b61020d6104a8565b6040518080602001828103825283818151815260200191508051906020019080838360005b8381101561024d578082015181840152602081019050610232565b50505050905090810190601f16801561027a5780820380516001836020036101000a031916815260200191505b509250505060405180910390f35b341561029357600080fd5b6102bf600480803573ffffffffffffffffffffffffffffffffffffffff16906020019091905050610546565b604051808215151515815260200191505060405180910390f35b34156102e457600080fd5b610319600480803573ffffffffffffffffffffffffffffffffffffffff16906020019091908035906020019091905050610571565b005b341561032657600080fd5b61032e610580565b005b60008054600181600116156101000203166002900480601f0160208091040260200160405190810160405280929190818152602001828054600181600116156101000203166002900480156103c65780601f1061039b576101008083540402835291602001916103c6565b820191906000526020600020905b8154815290600101906020018083116103a957829003601f168201915b505050505081565b60035481565b600260009054906101000a900460ff1681565b600060011515600560003373ffffffffffffffffffffffffffffffffffffffff1673ffffffffffffffffffffffffffffffffffffffff16815260200190815260200160002060000160009054906101000a900460ff16151514151561044b57600080fd5b600460003373ffffffffffffffffffffffffffffffffffffffff1673ffffffffffffffffffffffffffffffffffffffff16815260200190815260200160002054905090565b60046020528060005260406000206000915090505481565b60018054600181600116156101000203166002900480601f01602080910402602001604051908101604052809291908181526020018280546001816001161561010002031660029004801561053e5780601f106105135761010080835404028352916020019161053e565b820191906000526020600020905b81548152906001019060200180831161052157829003601f168201915b505050505081565b60056020528060005260406000206000915090508060000160009054906101000a900460ff16905081565b61057c33838361069a565b5050565b6000801515600560003373ffffffffffffffffffffffffffffffffffffffff1673ffffffffffffffffffffffffffffffffffffffff16815260200190815260200160002060000160009054906101000a900460ff1615151415156105e357600080fd5b600560003373ffffffffffffffffffffffffffffffffffffffff1673ffffffffffffffffffffffffffffffffffffffff168152602001908152602001600020905060018160000160006101000a81548160ff0219169083151502179055506064600460003373ffffffffffffffffffffffffffffffffffffffff1673ffffffffffffffffffffffffffffffffffffffff16815260200190815260200160002081905550606460036000828254039250508190555050565b6000808373ffffffffffffffffffffffffffffffffffffffff16141515156106c157600080fd5b60011515600560008573ffffffffffffffffffffffffffffffffffffffff1673ffffffffffffffffffffffffffffffffffffffff16815260200190815260200160002060000160009054906101000a900460ff16151514151561072357600080fd5b81600460008673ffffffffffffffffffffffffffffffffffffffff1673ffffffffffffffffffffffffffffffffffffffff168152602001908152602001600020541015151561077157600080fd5b600460008473ffffffffffffffffffffffffffffffffffffffff1673ffffffffffffffffffffffffffffffffffffffff1681526020019081526020016000205482600460008673ffffffffffffffffffffffffffffffffffffffff1673ffffffffffffffffffffffffffffffffffffffff16815260200190815260200160002054011115156107ff57600080fd5b600460008473ffffffffffffffffffffffffffffffffffffffff1673ffffffffffffffffffffffffffffffffffffffff16815260200190815260200160002054600460008673ffffffffffffffffffffffffffffffffffffffff1673ffffffffffffffffffffffffffffffffffffffff1681526020019081526020016000205401905081600460008673ffffffffffffffffffffffffffffffffffffffff1673ffffffffffffffffffffffffffffffffffffffff1681526020019081526020016000206000828254039250508190555081600460008573ffffffffffffffffffffffffffffffffffffffff1673ffffffffffffffffffffffffffffffffffffffff168152602001908152602001600020600082825401925050819055508273ffffffffffffffffffffffffffffffffffffffff168473ffffffffffffffffffffffffffffffffffffffff167fddf252ad1be2c89b69c2b068fc378daa952ba7f163c4a11628f55a4df523b3ef846040518082815260200191505060405180910390a380600460008573ffffffffffffffffffffffffffffffffffffffff1673ffffffffffffffffffffffffffffffffffffffff16815260200190815260200160002054600460008773ffffffffffffffffffffffffffffffffffffffff1673ffffffffffffffffffffffffffffffffffffffff1681526020019081526020016000205401141515610a0c57fe5b505050505600a165627a7a72305820499abbe7a9b3ca6fcbaaaeb92d25223cc3b71e45e4176f692b98b7b6f7018dfb0029",
  "source": "pragma solidity ^0.4.16;\n\ninterface tokenRecipient { function receiveApproval(address _from, uint256 _value, address _token, bytes _extraData) public; }\n\ncontract TokenERC20 {\n    // Public variables of the token\n    string public name;\n    string public symbol;\n    uint8 public decimals = 18;\n    // 18 decimals is the strongly suggested default, avoid changing it\n    uint256 public totalSupply;\n\n    // This creates an array with all balances\n    mapping (address => uint256) public balanceOf;\n\n\n    // This generates a public event on the blockchain that will notify clients\n    event Transfer(address indexed from, address indexed to, uint256 value);\n\n    \n    //Custom\n    struct User {\n        bool registered;\n    }\n    mapping (address => User) public users;\n\n    /**\n     * Constrctor function\n     *\n     * Initializes contract with initial supply tokens to the creator of the contract\n     */\n    function TokenERC20(\n        uint256 initialSupply,\n        string tokenName,\n        string tokenSymbol\n    ) public {\n        totalSupply = initialSupply * 10 ** uint256(decimals);  // Update total supply with the decimal amount\n        //balanceOf[msg.sender] = totalSupply;                // Give the creator all initial tokens\n        name = tokenName;                                   // Set the name for display purposes\n        symbol = tokenSymbol;                               // Set the symbol for display purposes\n    }\n    \n    \n    function signup() public {\n        require(users[msg.sender].registered == false);\n        var user = users[msg.sender];\n        user.registered = true;\n        balanceOf[msg.sender] = 100;\n        totalSupply -= 100;\n    }\n\n    function getMyBalance() public view returns(uint256) {\n       require(users[msg.sender].registered == true);\n       return balanceOf[msg.sender];\n    }\n\n    /**\n     * Internal transfer, only can be called by this contract\n     */\n    function _transfer(address _from, address _to, uint _value) internal {\n        // Prevent transfer to 0x0 address. Use burn() instead\n        require(_to != 0x0);\n        require(users[_to].registered == true);\n        // Check if the sender has enough\n        require(balanceOf[_from] >= _value);\n        // Check for overflows\n        require(balanceOf[_to] + _value > balanceOf[_to]);\n        // Save this for an assertion in the future\n        uint previousBalances = balanceOf[_from] + balanceOf[_to];\n        // Subtract from the sender\n        balanceOf[_from] -= _value;\n        // Add the same to the recipient\n        balanceOf[_to] += _value;\n        Transfer(_from, _to, _value);\n        // Asserts are used to use static analysis to find bugs in your code. They should never fail\n        assert(balanceOf[_from] + balanceOf[_to] == previousBalances);\n    }\n\n    /**\n     * Transfer tokens\n     *\n     * Send `_value` tokens to `_to` from your account\n     *\n     * @param _to The address of the recipient\n     * @param _value the amount to send\n     */\n    function transfer(address _to, uint256 _value) public {\n        _transfer(msg.sender, _to, _value);\n    }\n\n}\n",
  "sourcePath": "/Users/m_655507/Documents/Projects/BlockChain/react_tokens/src/ethereum/contracts/TokenERC20.sol",
  "compiler": {
    "name": "solc",
    "version": "0.4.18+commit.9cf6e910.Emscripten.clang"
  },
  "schemaVersion": "1.0.1",
  "updatedAt": "2018-01-18T21:45:28.070Z"
}